:020000040800F2
:100000001804002049010008B5030008B5020008E3
:10001000B10300089101000851050008000000002C
:10002000000000000000000000000000D9030008EC
:100030009501000800000000B7030008ED04000867
:100040006301000863010008630100086301000800
:1000500063010008630100086301000863010008F0
:1000600063010008630100086301000863010008E0
:1000700063010008630100086301000863010008D0
:1000800063010008630100086301000863010008C0
:1000900063010008630100086301000863010008B0
:1000A00063010008630100086301000863010008A0
:1000B0006301000863010008630100086301000890
:1000C0006301000863010008630100086301000880
:1000D0006301000863010008630100086301000870
:1000E0006301000863010008630100086301000860
:1000F0006301000863010008630100086301000850
:10010000630100086301000863010008630100083F
:10011000630100086301000863010008630100082F
:10012000630100086301000863010008630100081F
:10013000DFF810D000F01AF8004800470506000864
:10014000AFF30080180400200648804706480047A7
:10015000FEE7FEE7FEE7FEE7FEE7FEE7FEE7FEE777
:10016000FEE7FEE7F104000831010008064C074DE8
:1001700006E0E06840F0010394E807009847103477
:10018000AC42F6D3FFF7D8FF140600083406000887
:1001900000BFFEE770472DE9F0410246002500262A
:1001A000002000230024002791F803C00CF00F0565
:1001B00091F803C00CF0100CBCF1000F03D091F8C3
:1001C00002C04CEA050591F800C0BCF1000F31D027
:1001D000146800202BE04FF0010C0CFA00F3B1F88A
:1001E00000C00CEA03069E4220D183004FF00F0CA2
:1001F0000CFA03F7BC4305FA03FC4CEA040491F83B
:1002000003C0BCF1280F06D14FF0010C0CFA00FC22
:10021000C2F814C00AE091F803C0BCF1480F05D140
:100220004FF0010C0CFA00FCC2F810C0401C08286A
:10023000D1D31460B1F800C0BCF1FF0F34DD5468B5
:1002400000202EE000F1080C4FF0010808FA0CF332
:10025000B1F800C00CEA03069E4221D183004FF0A2
:100260000F0C0CFA03F7BC4305FA03FC4CEA040438
:1002700091F803C0BCF1280F05D100F1080C08FA71
:100280000CF8C2F8148091F803C0BCF1480F07D1F4
:1002900000F1080C4FF0010808FA0CF8C2F81080C1
:1002A000401C0828CED35460BDE8F08141617047FE
:1002B0000161704700BFFEE71FB50121082000F073
:1002C0007BF810208DF80F002020ADF80C000120E5
:1002D0008DF80E0003A91B48FFF75DFF10208DF875
:1002E0000B000120ADF808008DF80A0002A915489E
:1002F000FFF751FF10208DF807000220ADF8040031
:1003000001208DF8060001A90E48FFF744FF2021C7
:100310000C48FFF7CDFF01210A48FFF7C9FF022172
:100320000848FFF7C5FF0121042000F045F801202F
:10033000ADF8000004208DF8030069460248FFF77D
:100340002AFF1FBD000C01400008014000F012F917
:100350004FF47A7429E020211448FFF7A7FFA0B2D8
:1003600000F02AF920211148FFF7A2FF012000F038
:1003700023F901210D48FFF799FFA0B200F01CF905
:1003800001210A48FFF794FF012000F015F902212E
:100390000648FFF78BFFA0B200F00EF902210348D8
:1003A000FFF786FF012000F007F9D4E7000C0140B9
:1003B00000BFFEE77047704729B1064A92690243C1
:1003C000044B9A6104E0034A92698243014B9A61AB
:1003D0007047000000100240704710B500F002F8AE
:1003E00010BD00000CB5002001900090334800685B
:1003F00040F480303149086000BF3048006800F4A4
:10040000003000900198401C0190009818B90198A4
:10041000B0F5A06FF1D12948006800F4003010B1A8
:100420000120009001E0002000900098012843D1B5
:100430002348006840F01000214908600846006821
:1004400020F0030008600846006840F002000860E1
:100450001A4840681949486008464068486008469C
:10046000406840F4806048600846406820F47C1092
:1004700048600846406840F4E81048600846006854
:1004800040F08070086000BF0C48006800F0007009
:100490000028F9D00948406820F003000749486067
:1004A0000846406840F00200486000BF03484068CA
:1004B00000F00C000828F9D10CBD0000001002402B
:1004C00000200240042808D14FF0E021096941F0E2
:1004D00004014FF0E022116107E04FF0E0210969CB
:1004E00021F004014FF0E0221161704770470000D5
:1004F00010B51348006840F0010011490860084633
:100500004068104908400E494860084600680E4996
:1005100008400B4908600846006820F48020086005
:100520000846406820F4FE0048604FF41F008860D1
:10053000FFF753FF4FF000600449086010BD000052
:10054000001002400000FFF8FFFFF6FE08ED00E09B
:1005500000BFFEE702E008C8121F08C1002AFAD156
:1005600070477047002001E001C1121F002AFBD133
:100570007047000010B56FF00400FFF7A3FF0A48B2
:1005800000680A49B0FBF1F0094908700846007894
:1005900000EB4001C1EBC0104FF6FF7101EAC00053
:1005A0000449088010BD00000000002000127A00FD
:1005B00014000020160000200146114A12884A4308
:1005C0004FF0E0235A6100229A611A46126942F004
:1005D00001021A6100BF4FF0E022106900F0010231
:1005E0001AB100F48032002AF5D04FF0E0221269EF
:1005F00022F001024FF0E0231A6100229A61704755
:100600001600002010B5FFF757FEFFF79FFE0020F1
:1006100010BD000034060008000000201800000093
:10062000540500084C0600081800002000040000D3
:100630006405000800A24A04000000000000000059
:0C06400001020304060708090000000086
:0400000508000131BD
:00000001FF
