:020000040800F2
:100000002004002001010008A10200086D02000880
:100010009D020008490100087D060008000000005C
:10002000000000000000000000000000590300086C
:100030004D01000800000000150300086D040008D1
:100040001B0100081B0100081B0100081B01000820
:100050001B0100081B0100081B0100081B01000810
:100060001B0100081B0100081B0100081B01000800
:100070001B0100081B0100081B0100081B010008F0
:100080001B0100081B0100081B0100081B010008E0
:100090001B0100081B0100081B0100081B010008D0
:1000A0001B0100081B0100081B0100081B010008C0
:1000B0001B010008D10400081B0100081B010008F7
:1000C0001B0100081B0100081B0100081B010008A0
:1000D0001B0100081B0100081B0100081B01000890
:1000E0001B0100081B0100081B010008DFF80CD0F1
:1000F00000F018F800480047E5060008200400203A
:100100000648804706480047FEE7FEE7FEE7FEE7B1
:10011000FEE7FEE7FEE7FEE7FEE7FEE77104000804
:10012000ED000008064C074D06E0E06840F00103D2
:1001300094E8070098471034AC42F6D3FFF7DAFF93
:10014000FC0600081C07000800BFFEE770472DE909
:10015000F04102460025002600200023002400274D
:1001600091F803C00CF00F0591F803C00CF0100CCF
:10017000BCF1000F03D091F802C04CEA050591F8DC
:1001800000C0BCF1000F31D0146800202BE04FF00C
:10019000010C0CFA00F3B1F800C00CEA03069E4211
:1001A00020D183004FF00F0C0CFA03F7BC4305FA83
:1001B00003FC4CEA040491F803C0BCF1280F06D1FB
:1001C0004FF0010C0CFA00FCC2F814C00AE091F8E0
:1001D00003C0BCF1480F05D14FF0010C0CFA00FC34
:1001E000C2F810C0401C0828D1D31460B1F800C078
:1001F000BCF1FF0F34DD546800202EE000F1080C44
:100200004FF0010808FA0CF3B1F800C00CEA03063D
:100210009E4221D183004FF00F0C0CFA03F7BC4330
:1002200005FA03FC4CEA040491F803C0BCF1280F62
:1002300005D100F1080C08FA0CF8C2F8148091F806
:1002400003C0BCF1480F07D100F1080C4FF00108C2
:1002500008FA0CF8C2F81080401C0828CED354606D
:10026000BDE8F081416170470161704700BFFEE762
:1002700008B50121042000F05FF84FF48070ADF85C
:10028000000010208DF8030003208DF8020069465D
:100290000148FFF75CFF08BD0008014000BFFEE712
:1002A0007047000070B5002100230F22C47804B30A
:1002B000154C246804F4E064C4F5E064210AC1F13B
:1002C0000403CA40447804FA03F1847814402143BB
:1002D00009010E4C0678A155047804F01F0501248D
:1002E000AC4005786D11AD0005F1E025C5F8004181
:1002F00009E0047804F01F050124AC40044D0678A1
:10030000761145F8264070BD0CED00E000E400E0F9
:1003100080E100E07047000029B1064AD26902433B
:10032000044BDA6104E0034AD2698243014BDA618B
:10033000704700000010024029B1064A926902434A
:10034000044B9A6104E0034A92698243014B9A612B
:100350007047000000100240704710B500F002F82E
:1003600010BD00000CB500200190009033480068DB
:1003700040F480303149086000BF3048006800F424
:10038000003000900198401C0190009818B9019825
:10039000B0F5A06FF1D12948006800F4003010B129
:1003A0000120009001E0002000900098012843D136
:1003B0002348006840F010002149086008460068A2
:1003C00020F0030008600846006840F00200086062
:1003D0001A4840681949486008464068486008461D
:1003E000406840F4806048600846406820F47C1013
:1003F00048600846406840F4E810486008460068D5
:1004000040F08070086000BF0C48006800F0007089
:100410000028F9D00948406820F0030007494860E7
:100420000846406840F00200486000BF034840684A
:1004300000F00C000828F9D10CBD000000100240AB
:1004400000200240042808D14FF0E021096941F062
:1004500004014FF0E022116107E04FF0E02109694B
:1004600021F004014FF0E022116170477047000055
:1004700010B51348006840F00100114908600846B3
:100480004068104908400E494860084600680E4917
:1004900008400B4908600846006820F48020086086
:1004A0000846406820F4FE0048604FF41F00886052
:1004B000FFF753FF4FF000600449086010BD0000D3
:1004C000001002400000FFF8FFFFF6FE08ED00E01C
:1004D00010B50121114800F064F8F0B1104800781F
:1004E00010B1012814D10AE04FF480710D48FFF7D4
:1004F000B9FE0B480078401C0949087008E04FF429
:1005000080710848FFF7B0FE00200549087000BF61
:1005100000BF0121014800F035F810BD0004004083
:1005200018000020000801407FB505460C46012157
:100530000220FFF7F1FEADF80850ADF804400020AE
:10054000ADF80A00ADF8060001A90D4800F044F826
:10055000012211460A4800F035F81D208DF80000F0
:1005600002208DF801008DF8020001208DF80300B3
:100570006846FFF797FE0121014800F006F87FBDAD
:1005800000040040CA430282704721B1028842F051
:100590000102028004E002884FF6FE731A400280D6
:1005A000704730B50246002000230024158A05EA72
:1005B0000103958905EA010413B10CB1012000E0A3
:1005C000002030BD1AB183890B43838102E0838907
:1005D0008B43838170470000002202881D4B9842A4
:1005E0000ED01D4B98420BD0B0F1804F08D01B4B62
:1005F000984205D01A4B984202D01A4B984204D127
:100600004FF68F731A404B881A43174B984207D006
:10061000164B984204D04FF6FF431A40CB881A433A
:1006200002808B8883850B8803850A4B98420BD008
:10063000094B984208D00E4B984205D00D4B98427A
:1006400002D00D4B984201D10B7A0386012383829D
:1006500070470000002C01400034014000040040BD
:1006600000080040000C0040001000400014004052
:1006700000400140004401400048014000BFFEE747
:1006800002E008C8121F08C1002AFAD1704770475B
:10069000002001E001C1121F002AFBD170470000B9
:1006A00010B56FF00400FFF7CDFE0A4800680A4954
:1006B000B0FBF1F0094908700846007800EB4001F2
:1006C000C1EBC0104FF6FF7101EAC0000449088079
:1006D00010BD00000000002000127A00140000206D
:1006E00016000020FFF7C4FDFFF7DAFF41F61F41B7
:1006F00041F28730FFF718FF00BFFEE71C07000834
:10070000000000201C0000008006000838070008D8
:100710001C000020040400009006000800A24A0407
:1007200000000000000000000102030406070809A1
:080730000000000000000000C1
:04000005080000ED02
:00000001FF
